S00F000045564D5F365F302E7372656309
S11300000C942A000C9447000C9447000C9447006D
S11300100C9447000C9447000C9447000C94470040
S11300200C9447000C9447000C9447000C94470030
S11300300C9447000C9447000C9447000C94470020
S11300400C9447000C9447000C9447000C94470010
S11300500C94470011241FBECFE5D8E0DEBFCDBF0E
S113006010E0A0E6B0E0ECE5F6E002C005900D92E9
S1130070A037B107D9F720E0A0E7B0E001C01D9296
S1130080A437B207E1F70E9498010C942C030C9456
S1130090000040E00E94500008950E94300108953D
S11300A0823419F118F4813439F008958334B1F1AC
S11300B0843409F44CC00895413059F42AB381E0E2
S11300C090E002C0880F991F6A95E2F7822B8ABBE1
S11300D008952AB381E090E002C0880F991F6A95C1
S11300E0E2F7809582238ABB0895413059F427B3FF
S11300F081E090E002C0880F991F6A95E2F7822B95
S113010087BB089527B381E090E002C0880F991F50
S11301106A95E2F78095822387BB0895413059F4AC
S113012024B381E090E002C0880F991F6A95E2F73A
S1130130822B84BB089524B381E090E002C0880F31
S1130140991F6A95E2F78095822384BB0895413014
S113015059F421B381E090E002C0880F991F6A9599
S1130160E2F7822B81BB089521B381E090E002C0C5
S1130170880F991F6A95E2F78095822381BB0895C1
S1130180823419F118F4813439F008958334B1F1CB
S1130190843409F44CC00895413059F42BB381E000
S11301A090E002C0880F991F6A95E2F7822B8BBBFF
S11301B008952BB381E090E002C0880F991F6A95DF
S11301C0E2F7809582238BBB0895413059F428B31C
S11301D081E090E002C0880F991F6A95E2F7822BB4
S11301E088BB089528B381E090E002C0880F991F6E
S11301F06A95E2F78095822388BB0895413059F4CB
S113020025B381E090E002C0880F991F6A95E2F758
S1130210822B85BB089525B381E090E002C0880F4E
S1130220991F6A95E2F78095822385BB0895413032
S113023059F422B381E090E002C0880F991F6A95B7
S1130240E2F7822B82BB089522B381E090E002C0E2
S1130250880F991F6A95E2F78095822382BB0895DF
S11302608234D9F018F4813431F04DC0833439F13B
S11302708434B9F148C029B381E090E0062E02C06D
S1130280880F991F0A94E2F730E08223932302C077
S1130290959587956A95E2F7089526B381E090E0F5
S11302A0062E02C0880F991F0A94E2F730E08223D9
S11302B0932302C0959587956A95E2F7089523B331
S11302C081E090E0062E02C0880F991F0A94E2F79D
S11302D030E08223932302C0959587956A95E2F7CF
S11302E0089520B381E090E0062E02C0880F991F84
S11302F00A94E2F730E08223932302C09595879510
S11303006A95E2F7089580E00895823459F018F46C
S1130310813431F00895833439F0843439F0089508
S11303206BBB089568BB089565BB089562BB0895CF
S11303300E94820263E082E40E94490064E082E455
S11303400E94490065E082E40E94490066E082E47C
S11303500E94490067E082E40E94490080E690E040
S11303600E94FE026CE081E00E940D0384E690E0AE
S11303700E94FE0261E082E00E940D0388E690E0A4
S11303800E94FE026CE082E00E940D038CE690E085
S11303900E94FE0263E082E40E944D00813079F401
S11303A0809173008F5F8093730063E081E00E940B
S11303B00D0380917300805D0E94EC0270C064E0C4
S11303C082E40E944D00813079F4809172008F5F45
S11303D0809372006EE081E00E940D0380917200B0
S11303E0805D0E94EC025BC065E082E40E944D00E7
S11303F0813079F4809171008F5F8093710063E0A4
S113040082E00E940D0380917100805D0E94EC02E5
S113041046C066E082E40E944D00813079F4809108
S113042070008F5F809370006EE082E00E940D0385
S113043080917000805D0E94EC0231C067E082E42C
S11304400E944D00813059F5109270001092710095
S1130450109272001092730061E00E940D0380E616
S113046090E00E94FE026CE081E00E940D0384E6AD
S113047090E00E94FE0261E082E00E940D0388E6A3
S113048090E00E94FE026CE082E00E940D038CE684
S113049090E00E94FE0261E081E00E940D032FEFD4
S11304A081EE94E0215080409040E1F700C00000CC
S11304B071CF41E060E082E40E94C0008FE99FE0D8
S11304C00197F1F700C0000040E060E082E40E9480
S11304D0C0008FE99FE00197F1F700C00000089584
S11304E0682F81E40E94850140E061E082E40E947B
S11304F0C0000E9459028FEC97E00197F1F700C009
S1130500000008952FEF81EE94E021508040904048
S1130510E1F700C0000041E060E081E40E94500087
S113052041E061E081E40E94500041E062E081E446
S11305300E94500041E063E081E40E94500041E0E9
S113054064E081E40E94500041E065E081E40E949F
S1130550500041E066E081E40E94500041E067E021
S113056081E40E94500041E060E082E40E94500077
S113057041E062E082E40E94500041E061E082E4F4
S11305800E94500040E062E082E40E94C00088E3E0
S11305900E9470028FEC97E00197F1F700C0000011
S11305A08CE00E9470028FEC97E00197F1F700C095
S11305B0000081E00E9470028FE19EE40197F1F750
S11305C000C0000086E00E9470028FEC97E0019763
S11305D0F1F700C000000895682F81E40E948501AE
S11305E041E061E082E40E94C0000E9459028FEC65
S11305F097E00197F1F700C000000895CF93DF93CF
S1130600EC018881882331F021960E94EC028991C3
S11306108111FBCFDF91CF9108959FEF980F923016
S113062070F49FEF960F903160F4813019F42FE746
S1130630260F08C0823031F42FEB260F03C020E8C8
S113064001C020E8822F0E9470028FEC97E001978E
S10F0650F1F700C000000895F894FFCFFB
S113065C413D3000423D3000433D3000443D3000CC
S9030000FC
